{
  "contractName": "add_somethg",
  "abi": [
    {
      "constant": true,
      "inputs": [],
      "name": "a",
      "outputs": [
        {
          "name": "",
          "type": "uint256"
        }
      ],
      "payable": false,
      "stateMutability": "view",
      "type": "function",
      "signature": "0x0dbe671f"
    },
    {
      "constant": true,
      "inputs": [],
      "name": "b",
      "outputs": [
        {
          "name": "",
          "type": "uint256"
        }
      ],
      "payable": false,
      "stateMutability": "view",
      "type": "function",
      "signature": "0x4df7e3d0"
    },
    {
      "constant": false,
      "inputs": [],
      "name": "add_number",
      "outputs": [],
      "payable": false,
      "stateMutability": "nonpayable",
      "type": "function",
      "signature": "0xaa78b380"
    }
  ],
  "bytecode": "0x608060405234801561001057600080fd5b50610106806100206000396000f3fe6080604052600436106053576000357c0100000000000000000000000000000000000000000000000000000000900463ffffffff1680630dbe671f1460585780634df7e3d0146080578063aa78b3801460a8575b600080fd5b348015606357600080fd5b50606a60bc565b6040518082815260200191505060405180910390f35b348015608b57600080fd5b50609260c2565b6040518082815260200191505060405180910390f35b34801560b357600080fd5b5060ba60c8565b005b60005481565b60015481565b600a600081905550600560018190555056fea165627a7a72305820f461332bc10d62e0018cd6dfdec119904e4bc29a97d85ef62d3bfa97c912f69c0029",
  "source": "pragma solidity ^0.5.0;\r\n\r\ncontract add_somethg{\r\n    uint public a;\r\n    uint public b;\r\n    \r\n    function add_number() public{\r\n        \r\n        a = 10;\r\n        b = 5;\r\n        \r\n    }\r\n}",
  "sourcePath": "D:/learnBlockChain/adder/contracts/add_somethg.sol",
  "compiler": {
    "name": "solc",
    "version": "0.5.0+commit.1d4f565a.Emscripten.clang"
  },
  "schemaVersion": "3.0.1",
  "updatedAt": "2019-02-14T07:41:31.546Z",
  "devdoc": {
    "methods": {}
  },
  "userdoc": {
    "methods": {}
  }
}