{
  "contractName": "add_somethg",
  "abi": [
    {
      "constant": true,
      "inputs": [],
      "name": "a",
      "outputs": [
        {
          "name": "",
          "type": "uint256"
        }
      ],
      "payable": false,
      "stateMutability": "view",
      "type": "function",
      "signature": "0x0dbe671f"
    },
    {
      "constant": true,
      "inputs": [],
      "name": "b",
      "outputs": [
        {
          "name": "",
          "type": "uint256"
        }
      ],
      "payable": false,
      "stateMutability": "view",
      "type": "function",
      "signature": "0x4df7e3d0"
    },
    {
      "constant": false,
      "inputs": [
        {
          "name": "_a",
          "type": "uint256"
        },
        {
          "name": "_b",
          "type": "uint256"
        }
      ],
      "name": "setNum",
      "outputs": [],
      "payable": false,
      "stateMutability": "nonpayable",
      "type": "function",
      "signature": "0x782c523b"
    },
    {
      "constant": true,
      "inputs": [],
      "name": "addNum",
      "outputs": [
        {
          "name": "",
          "type": "uint256"
        }
      ],
      "payable": false,
      "stateMutability": "view",
      "type": "function",
      "signature": "0xefcfe81a"
    }
  ],
  "bytecode": "0x608060405234801561001057600080fd5b50610185806100206000396000f3fe608060405260043610610062576000357c0100000000000000000000000000000000000000000000000000000000900463ffffffff1680630dbe671f146100675780634df7e3d014610092578063782c523b146100bd578063efcfe81a14610102575b600080fd5b34801561007357600080fd5b5061007c61012d565b6040518082815260200191505060405180910390f35b34801561009e57600080fd5b506100a7610133565b6040518082815260200191505060405180910390f35b3480156100c957600080fd5b50610100600480360360408110156100e057600080fd5b810190808035906020019092919080359060200190929190505050610139565b005b34801561010e57600080fd5b5061011761014b565b6040518082815260200191505060405180910390f35b60005481565b60015481565b81600081905550806001819055505050565b60006001546000540190509056fea165627a7a72305820d3831fecfbe61d2087fe67be0c343e4ec974b17f7a5543ea6db22044f19c916d0029",
  "source": "pragma solidity ^0.5.0;\r\n\r\ncontract add_somethg{\r\n    \r\n    uint public a;\r\n    uint public b;\r\n    \r\n    function setNum(uint _a, uint _b) public{\r\n        a = _a;\r\n        b = _b;\r\n    }\r\n    \r\n    function addNum() public view returns (uint){\r\n        return a+b;\r\n    }\r\n    \r\n}\r\n",
  "sourcePath": "D:/learnBlockChain/Web3js-tutorial/contracts/add_somethg.sol",
  "compiler": {
    "name": "solc",
    "version": "0.5.0+commit.1d4f565a.Emscripten.clang"
  },
  "schemaVersion": "3.0.1",
  "updatedAt": "2019-02-15T07:03:38.435Z",
  "devdoc": {
    "methods": {}
  },
  "userdoc": {
    "methods": {}
  }
}